{
  "transactions": [
    {
      "hash": "0x48f0a5578aa914901e61cf952c2b2bedfec014f5523827c3e880a187949d6b41",
      "transactionType": "CALL",
      "contractName": null,
      "contractAddress": "0x00000000000017c61b5bee81050ec8efc9c6fecd",
      "function": "addStake(uint32)",
      "arguments": [
        "86400"
      ],
      "transaction": {
        "from": "0xddf32240b4ca3184de7ec8f0d5aba27dec8b7a5c",
        "to": "0x00000000000017c61b5bee81050ec8efc9c6fecd",
        "gas": "0x14559",
        "value": "0x16345785d8a0000",
        "input": "0x0396cb600000000000000000000000000000000000000000000000000000000000015180",
        "nonce": "0x59",
        "chainId": "0x1"
      },
      "additionalContracts": [],
      "isFixedGasLimit": false
    }
  ],
  "receipts": [
    {
      "status": "0x1",
      "cumulativeGasUsed": "0x9aa455",
      "logs": [
        {
          "address": "0x0000000071727de22e5e9d8baf0edac6f37da032",
          "topics": [
            "0xa5ae833d0bb1dcd632d98a8b70973e8516812898e19bf27b70071ebc8dc52c01",
            "0x00000000000000000000000000000000000017c61b5bee81050ec8efc9c6fecd"
          ],
          "data": "0x000000000000000000000000000000000000000000000000016345785d8a00000000000000000000000000000000000000000000000000000000000000015180",
          "blockHash": "0x22edcc327c73792e77f8ae4cf2e109e5580d6f60025e82cbf343af9a14609be6",
          "blockNumber": "0x146f10c",
          "transactionHash": "0x48f0a5578aa914901e61cf952c2b2bedfec014f5523827c3e880a187949d6b41",
          "transactionIndex": "0x73",
          "logIndex": "0xf2",
          "removed": false
        }
      ],
      "logsBloom": "0x00000000000000000000000000000000000000000000000000000000000000000000000000000000001000000000002000000000000000000000000000000000000000000000000000000000000000001040000000000000000000000000000000000000000800000000000000000000000000000000000000000000000000000000000000000000000000000000000000000000000000000000000000000000000000000000000000000000000000000000000000000000000000000000000000000000000000400000000000000000000040000000000000000000000000000100000000000000000000000000000000000200000000000000000000000000",
      "type": "0x2",
      "transactionHash": "0x48f0a5578aa914901e61cf952c2b2bedfec014f5523827c3e880a187949d6b41",
      "transactionIndex": "0x73",
      "blockHash": "0x22edcc327c73792e77f8ae4cf2e109e5580d6f60025e82cbf343af9a14609be6",
      "blockNumber": "0x146f10c",
      "gasUsed": "0xeb8d",
      "effectiveGasPrice": "0x26b9ebe4d",
      "from": "0xddf32240b4ca3184de7ec8f0d5aba27dec8b7a5c",
      "to": "0x00000000000017c61b5bee81050ec8efc9c6fecd",
      "contractAddress": null
    }
  ],
  "libraries": [],
  "pending": [],
  "returns": {},
  "timestamp": 1734489051,
  "chain": 1,
  "commit": "aa26e57"
}