{
  "transactions": [
    {
      "hash": "0xcf53edad4a3a35fce863235e9b98d2cbef4cda27caed513eaaeef87e1a506488",
      "transactionType": "CALL",
      "contractName": null,
      "contractAddress": "0x00000000000017c61b5bee81050ec8efc9c6fecd",
      "function": "addStake(uint32)",
      "arguments": [
        "86400"
      ],
      "transaction": {
        "from": "0xddf32240b4ca3184de7ec8f0d5aba27dec8b7a5c",
        "to": "0x00000000000017c61b5bee81050ec8efc9c6fecd",
        "gas": "0x14559",
        "value": "0x16345785d8a0000",
        "input": "0x0396cb600000000000000000000000000000000000000000000000000000000000015180",
        "nonce": "0x19",
        "chainId": "0x1a5ee289c"
      },
      "additionalContracts": [],
      "isFixedGasLimit": false
    }
  ],
  "receipts": [
    {
      "status": "0x1",
      "cumulativeGasUsed": "0xeb8d",
      "logs": [
        {
          "address": "0x0000000071727de22e5e9d8baf0edac6f37da032",
          "topics": [
            "0xa5ae833d0bb1dcd632d98a8b70973e8516812898e19bf27b70071ebc8dc52c01",
            "0x00000000000000000000000000000000000017c61b5bee81050ec8efc9c6fecd"
          ],
          "data": "0x000000000000000000000000000000000000000000000000016345785d8a00000000000000000000000000000000000000000000000000000000000000015180",
          "blockHash": "0xb132eca858dd88b24c2058368e9e85f3f227ed4149c32929b71d0c6b7294a988",
          "blockNumber": "0x44140",
          "transactionHash": "0xcf53edad4a3a35fce863235e9b98d2cbef4cda27caed513eaaeef87e1a506488",
          "transactionIndex": "0x0",
          "logIndex": "0x0",
          "removed": false
        }
      ],
      "logsBloom": "0x00000000000000000000000000000000000000000000000000000000000000000000000000000000001000000000002000000000000000000000000000000000000000000000000000000000000000001040000000000000000000000000000000000000000800000000000000000000000000000000000000000000000000000000000000000000000000000000000000000000000000000000000000000000000000000000000000000000000000000000000000000000000000000000000000000000000000400000000000000000000040000000000000000000000000000100000000000000000000000000000000000200000000000000000000000000",
      "type": "0x2",
      "transactionHash": "0xcf53edad4a3a35fce863235e9b98d2cbef4cda27caed513eaaeef87e1a506488",
      "transactionIndex": "0x0",
      "blockHash": "0xb132eca858dd88b24c2058368e9e85f3f227ed4149c32929b71d0c6b7294a988",
      "blockNumber": "0x44140",
      "gasUsed": "0xeb8d",
      "effectiveGasPrice": "0xe078996",
      "from": "0xddf32240b4ca3184de7ec8f0d5aba27dec8b7a5c",
      "to": "0x00000000000017c61b5bee81050ec8efc9c6fecd",
      "contractAddress": null
    }
  ],
  "libraries": [],
  "pending": [],
  "returns": {},
  "timestamp": 1734483600,
  "chain": 7078815900,
  "commit": "aa26e57"
}