{
  "transactions": [
    {
      "hash": "0x0bb834acbfdf96485f9114a3ff995e43fdd482f4136d452d0a0b8e32d33075a9",
      "transactionType": "CALL",
      "contractName": null,
      "contractAddress": "0x00000000000017c61b5bee81050ec8efc9c6fecd",
      "function": "addStake(uint32)",
      "arguments": [
        "86400"
      ],
      "transaction": {
        "from": "0xddf32240b4ca3184de7ec8f0d5aba27dec8b7a5c",
        "to": "0x00000000000017c61b5bee81050ec8efc9c6fecd",
        "gas": "0x14559",
        "value": "0x56bc75e2d63100000",
        "input": "0x0396cb600000000000000000000000000000000000000000000000000000000000015180",
        "nonce": "0x42",
        "chainId": "0x89"
      },
      "additionalContracts": [],
      "isFixedGasLimit": false
    }
  ],
  "receipts": [
    {
      "status": "0x1",
      "cumulativeGasUsed": "0xa8cffe",
      "logs": [
        {
          "address": "0x0000000000000000000000000000000000001010",
          "topics": [
            "0xe6497e3ee548a3372136af2fcb0696db31fc6cf20260707645068bd3fe97f3c4",
            "0x0000000000000000000000000000000000000000000000000000000000001010",
            "0x000000000000000000000000ddf32240b4ca3184de7ec8f0d5aba27dec8b7a5c",
            "0x00000000000000000000000000000000000017c61b5bee81050ec8efc9c6fecd"
          ],
          "data": "0x0000000000000000000000000000000000000000000000056bc75e2d6310000000000000000000000000000000000000000000000000000683d3cc9cb44c50850000000000000000000000000000000000000000000000000000000000000000000000000000000000000000000000000000000000000001180c6e6f513c50850000000000000000000000000000000000000000000000056bc75e2d63100000",
          "blockHash": "0x0e504232f377b1df8170ecc6bb74bfdffe93d99bdeffc78cc31df5a89275270a",
          "blockNumber": "0x3e93621",
          "transactionHash": "0x0bb834acbfdf96485f9114a3ff995e43fdd482f4136d452d0a0b8e32d33075a9",
          "transactionIndex": "0x43",
          "logIndex": "0x17b",
          "removed": false
        },
        {
          "address": "0x0000000000000000000000000000000000001010",
          "topics": [
            "0xe6497e3ee548a3372136af2fcb0696db31fc6cf20260707645068bd3fe97f3c4",
            "0x0000000000000000000000000000000000000000000000000000000000001010",
            "0x00000000000000000000000000000000000017c61b5bee81050ec8efc9c6fecd",
            "0x0000000000000000000000000000000071727de22e5e9d8baf0edac6f37da032"
          ],
          "data": "0x0000000000000000000000000000000000000000000000056bc75e2d631000000000000000000000000000000000000000000000000000056bc75e2d631000000000000000000000000000000000000000000000000002788da61189082fbd37000000000000000000000000000000000000000000000000000000000000000000000000000000000000000000000000000000000000027df96d6fb66b3fbd37",
          "blockHash": "0x0e504232f377b1df8170ecc6bb74bfdffe93d99bdeffc78cc31df5a89275270a",
          "blockNumber": "0x3e93621",
          "transactionHash": "0x0bb834acbfdf96485f9114a3ff995e43fdd482f4136d452d0a0b8e32d33075a9",
          "transactionIndex": "0x43",
          "logIndex": "0x17c",
          "removed": false
        },
        {
          "address": "0x0000000071727de22e5e9d8baf0edac6f37da032",
          "topics": [
            "0xa5ae833d0bb1dcd632d98a8b70973e8516812898e19bf27b70071ebc8dc52c01",
            "0x00000000000000000000000000000000000017c61b5bee81050ec8efc9c6fecd"
          ],
          "data": "0x0000000000000000000000000000000000000000000000056bc75e2d631000000000000000000000000000000000000000000000000000000000000000015180",
          "blockHash": "0x0e504232f377b1df8170ecc6bb74bfdffe93d99bdeffc78cc31df5a89275270a",
          "blockNumber": "0x3e93621",
          "transactionHash": "0x0bb834acbfdf96485f9114a3ff995e43fdd482f4136d452d0a0b8e32d33075a9",
          "transactionIndex": "0x43",
          "logIndex": "0x17d",
          "removed": false
        },
        {
          "address": "0x0000000000000000000000000000000000001010",
          "topics": [
            "0x4dfe1bbbcf077ddc3e01291eea2d5c70c2b422b415d95645b9adcfd678cb1d63",
            "0x0000000000000000000000000000000000000000000000000000000000001010",
            "0x000000000000000000000000ddf32240b4ca3184de7ec8f0d5aba27dec8b7a5c",
            "0x0000000000000000000000001d25c827abd466387bda00b429fe728627d6eee6"
          ],
          "data": "0x000000000000000000000000000000000000000000000000000690a5da435f4000000000000000000000000000000000000000000000000683dcea3aa92f0000000000000000000000000000000000000000000000000cb91ac8a56fbefa74ed00000000000000000000000000000000000000000000000683d65994ceeba0c0000000000000000000000000000000000000000000000cb91acf3615993dd42d",
          "blockHash": "0x0e504232f377b1df8170ecc6bb74bfdffe93d99bdeffc78cc31df5a89275270a",
          "blockNumber": "0x3e93621",
          "transactionHash": "0x0bb834acbfdf96485f9114a3ff995e43fdd482f4136d452d0a0b8e32d33075a9",
          "transactionIndex": "0x43",
          "logIndex": "0x17e",
          "removed": false
        }
      ],
      "logsBloom": "0x00000000000000000000000000000000000000000000000010000004000000000000000000000000001000100000002000008000000000000000000000000000010000000000000000000000000000801040000000000000000100000000000000000000000800000000000000000000000000000000000080000000000000000000000000000000000000000000000000000000000000000000000000000000200000000000000000000000000000000000800000000000000000000000004000000000000000408001000000000000000040000000800000108000000000000100000000000000000010040000000000800200000000000100000000100000",
      "type": "0x2",
      "transactionHash": "0x0bb834acbfdf96485f9114a3ff995e43fdd482f4136d452d0a0b8e32d33075a9",
      "transactionIndex": "0x43",
      "blockHash": "0x0e504232f377b1df8170ecc6bb74bfdffe93d99bdeffc78cc31df5a89275270a",
      "blockNumber": "0x3e93621",
      "gasUsed": "0xeb8d",
      "effectiveGasPrice": "0x72c353cf3",
      "from": "0xddf32240b4ca3184de7ec8f0d5aba27dec8b7a5c",
      "to": "0x00000000000017c61b5bee81050ec8efc9c6fecd",
      "contractAddress": null
    }
  ],
  "libraries": [],
  "pending": [],
  "returns": {},
  "timestamp": 1734488193,
  "chain": 137,
  "commit": "aa26e57"
}