{
  "transactions": [
    {
      "hash": "0xbe73c2fd3eb042f5d7b4981d8d671db01acae8ec0b0e69623edfd67e33e94a08",
      "transactionType": "CALL",
      "contractName": null,
      "contractAddress": "0x00000000000017c61b5bee81050ec8efc9c6fecd",
      "function": "addStake(uint32)",
      "arguments": [
        "86400"
      ],
      "transaction": {
        "from": "0xddf32240b4ca3184de7ec8f0d5aba27dec8b7a5c",
        "to": "0x00000000000017c61b5bee81050ec8efc9c6fecd",
        "gas": "0x19de9",
        "value": "0x16345785d8a0000",
        "input": "0x0396cb600000000000000000000000000000000000000000000000000000000000015180",
        "nonce": "0x36",
        "chainId": "0xa4b1"
      },
      "additionalContracts": [],
      "isFixedGasLimit": false
    }
  ],
  "receipts": [
    {
      "status": "0x1",
      "cumulativeGasUsed": "0x11d11",
      "logs": [
        {
          "address": "0x0000000071727de22e5e9d8baf0edac6f37da032",
          "topics": [
            "0xa5ae833d0bb1dcd632d98a8b70973e8516812898e19bf27b70071ebc8dc52c01",
            "0x00000000000000000000000000000000000017c61b5bee81050ec8efc9c6fecd"
          ],
          "data": "0x000000000000000000000000000000000000000000000000016345785d8a00000000000000000000000000000000000000000000000000000000000000015180",
          "blockHash": "0xbc3ca1e3b6a4150ccb392932e3a47d9c3d7f451d54a5cda6a977c45df5b110a7",
          "blockNumber": "0x110a660f",
          "transactionHash": "0xbe73c2fd3eb042f5d7b4981d8d671db01acae8ec0b0e69623edfd67e33e94a08",
          "transactionIndex": "0x1",
          "logIndex": "0x0",
          "removed": false
        }
      ],
      "logsBloom": "0x00000000000000000000000000000000000000000000000000000000000000000000000000000000001000000000002000000000000000000000000000000000000000000000000000000000000000001040000000000000000000000000000000000000000800000000000000000000000000000000000000000000000000000000000000000000000000000000000000000000000000000000000000000000000000000000000000000000000000000000000000000000000000000000000000000000000000400000000000000000000040000000000000000000000000000100000000000000000000000000000000000200000000000000000000000000",
      "type": "0x2",
      "transactionHash": "0xbe73c2fd3eb042f5d7b4981d8d671db01acae8ec0b0e69623edfd67e33e94a08",
      "transactionIndex": "0x1",
      "blockHash": "0xbc3ca1e3b6a4150ccb392932e3a47d9c3d7f451d54a5cda6a977c45df5b110a7",
      "blockNumber": "0x110a660f",
      "gasUsed": "0x11d11",
      "effectiveGasPrice": "0x1d69c90",
      "from": "0xddf32240b4ca3184de7ec8f0d5aba27dec8b7a5c",
      "to": "0x00000000000017c61b5bee81050ec8efc9c6fecd",
      "contractAddress": null,
      "gasUsedForL1": "0x3184",
      "l1BlockNumber": "0x146f05e"
    }
  ],
  "libraries": [],
  "pending": [],
  "returns": {},
  "timestamp": 1734486940,
  "chain": 42161,
  "commit": "aa26e57"
}