{
  "transactions": [
    {
      "hash": "0x82adade6133a07978758cff291af66e5787a324ff25846e9fb6efb3b236ff3b8",
      "transactionType": "CALL",
      "contractName": null,
      "contractAddress": "0x00000000000017c61b5bee81050ec8efc9c6fecd",
      "function": "addStake(uint32)",
      "arguments": [
        "86400"
      ],
      "transaction": {
        "from": "0xddf32240b4ca3184de7ec8f0d5aba27dec8b7a5c",
        "to": "0x00000000000017c61b5bee81050ec8efc9c6fecd",
        "gas": "0x14559",
        "value": "0x16345785d8a0000",
        "input": "0x0396cb600000000000000000000000000000000000000000000000000000000000015180",
        "nonce": "0x4c",
        "chainId": "0x2105"
      },
      "additionalContracts": [],
      "isFixedGasLimit": false
    }
  ],
  "receipts": [
    {
      "status": "0x1",
      "cumulativeGasUsed": "0x17be6ea",
      "logs": [
        {
          "address": "0x0000000071727de22e5e9d8baf0edac6f37da032",
          "topics": [
            "0xa5ae833d0bb1dcd632d98a8b70973e8516812898e19bf27b70071ebc8dc52c01",
            "0x00000000000000000000000000000000000017c61b5bee81050ec8efc9c6fecd"
          ],
          "data": "0x000000000000000000000000000000000000000000000000016345785d8a00000000000000000000000000000000000000000000000000000000000000015180",
          "blockHash": "0x8c99aad8799ead6f105140b3901b2d85a4cfb75b90af7392c141f19e7fa743ec",
          "blockNumber": "0x16be8b9",
          "transactionHash": "0x82adade6133a07978758cff291af66e5787a324ff25846e9fb6efb3b236ff3b8",
          "transactionIndex": "0x69",
          "logIndex": "0x109",
          "removed": false
        }
      ],
      "logsBloom": "0x00000000000000000000000000000000000000000000000000000000000000000000000000000000001000000000002000000000000000000000000000000000000000000000000000000000000000001040000000000000000000000000000000000000000800000000000000000000000000000000000000000000000000000000000000000000000000000000000000000000000000000000000000000000000000000000000000000000000000000000000000000000000000000000000000000000000000400000000000000000000040000000000000000000000000000100000000000000000000000000000000000200000000000000000000000000",
      "type": "0x2",
      "transactionHash": "0x82adade6133a07978758cff291af66e5787a324ff25846e9fb6efb3b236ff3b8",
      "transactionIndex": "0x69",
      "blockHash": "0x8c99aad8799ead6f105140b3901b2d85a4cfb75b90af7392c141f19e7fa743ec",
      "blockNumber": "0x16be8b9",
      "gasUsed": "0xeb8d",
      "effectiveGasPrice": "0x1f98f2a",
      "from": "0xddf32240b4ca3184de7ec8f0d5aba27dec8b7a5c",
      "to": "0x00000000000017c61b5bee81050ec8efc9c6fecd",
      "contractAddress": null,
      "l1BaseFeeScalar": "0x8dd",
      "l1BlobBaseFee": "0x8c",
      "l1BlobBaseFeeScalar": "0x101c12",
      "l1Fee": "0x8ae4246e3",
      "l1GasPrice": "0x2641ff568",
      "l1GasUsed": "0x640"
    }
  ],
  "libraries": [],
  "pending": [],
  "returns": {},
  "timestamp": 1734487638,
  "chain": 8453,
  "commit": "aa26e57"
}