{
  "transactions": [
    {
      "hash": "0x0652ba0d6c7f26be8a6072865f672fe8ad8b96be7030a9990c1deced5449f892",
      "transactionType": "CALL",
      "contractName": null,
      "contractAddress": "0x00000000000017c61b5bee81050ec8efc9c6fecd",
      "function": "addStake(uint32)",
      "arguments": [
        "86400"
      ],
      "transaction": {
        "from": "0xddf32240b4ca3184de7ec8f0d5aba27dec8b7a5c",
        "to": "0x00000000000017c61b5bee81050ec8efc9c6fecd",
        "gas": "0x14559",
        "value": "0x8ac7230489e80000",
        "input": "0x0396cb600000000000000000000000000000000000000000000000000000000000015180",
        "nonce": "0x2e",
        "chainId": "0x13882"
      },
      "additionalContracts": [],
      "isFixedGasLimit": false
    }
  ],
  "receipts": [
    {
      "status": "0x1",
      "cumulativeGasUsed": "0x1b4a5",
      "logs": [
        {
          "address": "0x0000000000000000000000000000000000001010",
          "topics": [
            "0xe6497e3ee548a3372136af2fcb0696db31fc6cf20260707645068bd3fe97f3c4",
            "0x0000000000000000000000000000000000000000000000000000000000001010",
            "0x000000000000000000000000ddf32240b4ca3184de7ec8f0d5aba27dec8b7a5c",
            "0x00000000000000000000000000000000000017c61b5bee81050ec8efc9c6fecd"
          ],
          "data": "0x0000000000000000000000000000000000000000000000008ac7230489e80000000000000000000000000000000000000000000000000018f4717a7f3ab4770b000000000000000000000000000000000000000000000000000000000000000000000000000000000000000000000000000000000000001869aa577ab0cc770b0000000000000000000000000000000000000000000000008ac7230489e80000",
          "blockHash": "0xb97e57e625f8b0b9e8fca601d8e04f0bc690d3a901f61f8f71086d09a409cb6e",
          "blockNumber": "0xf0208b",
          "transactionHash": "0x0652ba0d6c7f26be8a6072865f672fe8ad8b96be7030a9990c1deced5449f892",
          "transactionIndex": "0x1",
          "logIndex": "0x2",
          "removed": false
        },
        {
          "address": "0x0000000000000000000000000000000000001010",
          "topics": [
            "0xe6497e3ee548a3372136af2fcb0696db31fc6cf20260707645068bd3fe97f3c4",
            "0x0000000000000000000000000000000000000000000000000000000000001010",
            "0x00000000000000000000000000000000000017c61b5bee81050ec8efc9c6fecd",
            "0x0000000000000000000000000000000071727de22e5e9d8baf0edac6f37da032"
          ],
          "data": "0x0000000000000000000000000000000000000000000000008ac7230489e800000000000000000000000000000000000000000000000000008ac7230489e8000000000000000000000000000000000000000000000000037ba48d003ec771fdbc000000000000000000000000000000000000000000000000000000000000000000000000000000000000000000000000000000000000037c2f5423435159fdbc",
          "blockHash": "0xb97e57e625f8b0b9e8fca601d8e04f0bc690d3a901f61f8f71086d09a409cb6e",
          "blockNumber": "0xf0208b",
          "transactionHash": "0x0652ba0d6c7f26be8a6072865f672fe8ad8b96be7030a9990c1deced5449f892",
          "transactionIndex": "0x1",
          "logIndex": "0x3",
          "removed": false
        },
        {
          "address": "0x0000000071727de22e5e9d8baf0edac6f37da032",
          "topics": [
            "0xa5ae833d0bb1dcd632d98a8b70973e8516812898e19bf27b70071ebc8dc52c01",
            "0x00000000000000000000000000000000000017c61b5bee81050ec8efc9c6fecd"
          ],
          "data": "0x0000000000000000000000000000000000000000000000008ac7230489e800000000000000000000000000000000000000000000000000000000000000015180",
          "blockHash": "0xb97e57e625f8b0b9e8fca601d8e04f0bc690d3a901f61f8f71086d09a409cb6e",
          "blockNumber": "0xf0208b",
          "transactionHash": "0x0652ba0d6c7f26be8a6072865f672fe8ad8b96be7030a9990c1deced5449f892",
          "transactionIndex": "0x1",
          "logIndex": "0x4",
          "removed": false
        },
        {
          "address": "0x0000000000000000000000000000000000001010",
          "topics": [
            "0x4dfe1bbbcf077ddc3e01291eea2d5c70c2b422b415d95645b9adcfd678cb1d63",
            "0x0000000000000000000000000000000000000000000000000000000000001010",
            "0x000000000000000000000000ddf32240b4ca3184de7ec8f0d5aba27dec8b7a5c",
            "0x0000000000000000000000006c095a53250dd250797ff915a716cca690ad8842"
          ],
          "data": "0x00000000000000000000000000000000000000000000000000055b16041d7200000000000000000000000000000000000000000000000018f478e045043f31420000000000000000000000000000000000000000000000f0c4931d43838c6325000000000000000000000000000000000000000000000018f473852f0021bf420000000000000000000000000000000000000000000000f0c498785987a9d525",
          "blockHash": "0xb97e57e625f8b0b9e8fca601d8e04f0bc690d3a901f61f8f71086d09a409cb6e",
          "blockNumber": "0xf0208b",
          "transactionHash": "0x0652ba0d6c7f26be8a6072865f672fe8ad8b96be7030a9990c1deced5449f892",
          "transactionIndex": "0x1",
          "logIndex": "0x5",
          "removed": false
        }
      ],
      "logsBloom": "0x00000000000000000000000000000000000000000000000000000000000000000000000000000000001000100000002000008000000000000000000000000000010000000000000000000000000000801040000000000000000100000000000000000000000800000000000000000000000000000000040080000000000000000000000000000000400000000000000000000000000000000000000000000000200000000000000000008000000000000000800000000000000000000000004000000000000000408001000000000000000040000000800000108000000000000100000000000000000010000000000000800200000000000100000000100000",
      "type": "0x2",
      "transactionHash": "0x0652ba0d6c7f26be8a6072865f672fe8ad8b96be7030a9990c1deced5449f892",
      "transactionIndex": "0x1",
      "blockHash": "0xb97e57e625f8b0b9e8fca601d8e04f0bc690d3a901f61f8f71086d09a409cb6e",
      "blockNumber": "0xf0208b",
      "gasUsed": "0xeb8d",
      "effectiveGasPrice": "0x5d21dba0f",
      "from": "0xddf32240b4ca3184de7ec8f0d5aba27dec8b7a5c",
      "to": "0x00000000000017c61b5bee81050ec8efc9c6fecd",
      "contractAddress": null
    }
  ],
  "libraries": [],
  "pending": [],
  "returns": {},
  "timestamp": 1734486104,
  "chain": 80002,
  "commit": "aa26e57"
}